{
  "_format": "hh-sol-artifact-1",
  "contractName": "DecentraLibro",
  "sourceName": "contracts/DecentraLibro.sol",
  "abi": [
    {
      "anonymous": false,
      "inputs": [
        {
          "indexed": false,
          "internalType": "address",
          "name": "recipient",
          "type": "address"
        },
        {
          "indexed": false,
          "internalType": "uint256",
          "name": "Book_ID",
          "type": "uint256"
        }
      ],
      "name": "Book_Added",
      "type": "event"
    },
    {
      "anonymous": false,
      "inputs": [
        {
          "indexed": false,
          "internalType": "address",
          "name": "book_borrower",
          "type": "address"
        },
        {
          "indexed": false,
          "internalType": "uint256",
          "name": "Book_ID",
          "type": "uint256"
        }
      ],
      "name": "Book_Returned",
      "type": "event"
    },
    {
      "anonymous": false,
      "inputs": [
        {
          "indexed": false,
          "internalType": "address",
          "name": "book_borrower",
          "type": "address"
        },
        {
          "indexed": false,
          "internalType": "uint256",
          "name": "Book_ID",
          "type": "uint256"
        }
      ],
      "name": "Borrowed_Book",
      "type": "event"
    },
    {
      "inputs": [
        {
          "internalType": "string",
          "name": "title",
          "type": "string"
        },
        {
          "internalType": "string",
          "name": "author",
          "type": "string"
        },
        {
          "internalType": "string",
          "name": "pinata_CID",
          "type": "string"
        },
        {
          "internalType": "uint256",
          "name": "avail_copies",
          "type": "uint256"
        }
      ],
      "name": "Add_Book",
      "outputs": [],
      "stateMutability": "nonpayable",
      "type": "function"
    },
    {
      "inputs": [
        {
          "internalType": "address",
          "name": "user",
          "type": "address"
        }
      ],
      "name": "Borrowed_Book_List",
      "outputs": [
        {
          "internalType": "uint256[]",
          "name": "",
          "type": "uint256[]"
        }
      ],
      "stateMutability": "view",
      "type": "function"
    },
    {
      "inputs": [
        {
          "internalType": "uint256",
          "name": "Book_ID",
          "type": "uint256"
        }
      ],
      "name": "borrow_this_book",
      "outputs": [],
      "stateMutability": "nonpayable",
      "type": "function"
    },
    {
      "inputs": [],
      "name": "getAllBooks",
      "outputs": [
        {
          "components": [
            {
              "internalType": "uint256",
              "name": "id",
              "type": "uint256"
            },
            {
              "internalType": "string",
              "name": "title",
              "type": "string"
            },
            {
              "internalType": "string",
              "name": "author",
              "type": "string"
            },
            {
              "internalType": "string",
              "name": "pinata_CID",
              "type": "string"
            },
            {
              "internalType": "uint256",
              "name": "avail_copies",
              "type": "uint256"
            },
            {
              "internalType": "address",
              "name": "book_borrower",
              "type": "address"
            }
          ],
          "internalType": "struct DecentraLibro.Book[]",
          "name": "",
          "type": "tuple[]"
        }
      ],
      "stateMutability": "view",
      "type": "function"
    },
    {
      "inputs": [
        {
          "internalType": "uint256",
          "name": "Book_ID",
          "type": "uint256"
        }
      ],
      "name": "getBookCID",
      "outputs": [
        {
          "internalType": "string",
          "name": "",
          "type": "string"
        }
      ],
      "stateMutability": "view",
      "type": "function"
    },
    {
      "inputs": [],
      "name": "getBookCount",
      "outputs": [
        {
          "internalType": "uint256",
          "name": "",
          "type": "uint256"
        }
      ],
      "stateMutability": "view",
      "type": "function"
    },
    {
      "inputs": [
        {
          "internalType": "uint256",
          "name": "",
          "type": "uint256"
        }
      ],
      "name": "owner",
      "outputs": [
        {
          "internalType": "address",
          "name": "",
          "type": "address"
        }
      ],
      "stateMutability": "view",
      "type": "function"
    },
    {
      "inputs": [
        {
          "internalType": "uint256",
          "name": "Book_ID",
          "type": "uint256"
        }
      ],
      "name": "return_this_book",
      "outputs": [],
      "stateMutability": "nonpayable",
      "type": "function"
    }
  ],
  "bytecode": "0x608060405234801561001057600080fd5b506118e2806100206000396000f3fe608060405234801561001057600080fd5b50600436106100885760003560e01c806378fcfa6a1161005b57806378fcfa6a14610127578063a123c33e14610143578063d73e0c8914610173578063fb09135b1461019157610088565b8063354528e81461008d578063361f1ede146100ab5780633a95ebd0146100c757806356fada51146100f7575b600080fd5b6100956101ad565b6040516100a291906110cc565b60405180910390f35b6100c560048036038101906100c0919061112e565b61042c565b005b6100e160048036038101906100dc919061112e565b61060e565b6040516100ee91906111a5565b60405180910390f35b610111600480360381019061010c91906111f3565b61071e565b60405161011e91906112cf565b60405180910390f35b610141600480360381019061013c919061112e565b6108f4565b005b61015d6004803603810190610158919061112e565b610be0565b60405161016a9190611300565b60405180910390f35b61017b610c13565b604051610188919061132a565b60405180910390f35b6101ab60048036038101906101a6919061147a565b610c1f565b005b60606000805480602002602001604051908101604052809291908181526020016000905b8282101561042357838290600052602060002090600602016040518060c00160405290816000820154815260200160018201805461020e90611564565b80601f016020809104026020016040519081016040528092919081815260200182805461023a90611564565b80156102875780601f1061025c57610100808354040283529160200191610287565b820191906000526020600020905b81548152906001019060200180831161026a57829003601f168201915b505050505081526020016002820180546102a090611564565b80601f01602080910402602001604051908101604052809291908181526020018280546102cc90611564565b80156103195780601f106102ee57610100808354040283529160200191610319565b820191906000526020600020905b8154815290600101906020018083116102fc57829003601f168201915b5050505050815260200160038201805461033290611564565b80601f016020809104026020016040519081016040528092919081815260200182805461035e90611564565b80156103ab5780601f10610380576101008083540402835291602001916103ab565b820191906000526020600020905b81548152906001019060200180831161038e57829003601f168201915b50505050508152602001600482015481526020016005820160009054906101000a900473ffffffffffffffffffffffffffffffffffffffff1673ffffffffffffffffffffffffffffffffffffffff1673ffffffffffffffffffffffffffffffffffffffff1681525050815260200190600101906101d1565b50505050905090565b60008110158015610441575060008054905081105b610480576040517f08c379a0000000000000000000000000000000000000000000000000000000008152600401610477906115e2565b60405180910390fd5b3373ffffffffffffffffffffffffffffffffffffffff16600082815481106104ab576104aa611602565b5b906000526020600020906006020160050160009054906101000a900473ffffffffffffffffffffffffffffffffffffffff1673ffffffffffffffffffffffffffffffffffffffff1614610533576040517f08c379a000000000000000000000000000000000000000000000000000000000815260040161052a9061167d565b60405180910390fd5b600080828154811061054857610547611602565b5b906000526020600020906006020160050160006101000a81548173ffffffffffffffffffffffffffffffffffffffff021916908373ffffffffffffffffffffffffffffffffffffffff160217905550600081815481106105ab576105aa611602565b5b906000526020600020906006020160040160008154809291906105cd906116cc565b91905055507fb1db5572865435d358028f0bba8c96eb5af2c3fe5b236520343340a7eda694173382604051610603929190611715565b60405180910390a150565b606060008210158015610625575060008054905082105b610664576040517f08c379a000000000000000000000000000000000000000000000000000000000815260040161065b906115e2565b60405180910390fd5b600080838154811061067957610678611602565b5b9060005260206000209060060201905080600301805461069890611564565b80601f01602080910402602001604051908101604052809291908181526020018280546106c490611564565b80156107115780601f106106e657610100808354040283529160200191610711565b820191906000526020600020905b8154815290600101906020018083116106f457829003601f168201915b5050505050915050919050565b60606000805b6000805490508110156107cc578373ffffffffffffffffffffffffffffffffffffffff166000828154811061075c5761075b611602565b5b906000526020600020906006020160050160009054906101000a900473ffffffffffffffffffffffffffffffffffffffff1673ffffffffffffffffffffffffffffffffffffffff1614156107b95781806107b5906116cc565b9250505b80806107c4906116cc565b915050610724565b5060008167ffffffffffffffff8111156107e9576107e861134f565b5b6040519080825280602002602001820160405280156108175781602001602082028036833780820191505090505b5090506000915060005b6000805490508110156108e9578473ffffffffffffffffffffffffffffffffffffffff166000828154811061085957610858611602565b5b906000526020600020906006020160050160009054906101000a900473ffffffffffffffffffffffffffffffffffffffff1673ffffffffffffffffffffffffffffffffffffffff1614156108d657808284815181106108bb576108ba611602565b5b60200260200101818152505082806108d2906116cc565b9350505b80806108e1906116cc565b915050610821565b508092505050919050565b60008110158015610909575060008054905081105b610948576040517f08c379a000000000000000000000000000000000000000000000000000000000815260040161093f906115e2565b60405180910390fd5b600080828154811061095d5761095c611602565b5b906000526020600020906006020160040154116109af576040517f08c379a00000000000000000000000000000000000000000000000000000000081526004016109a69061178a565b60405180910390fd5b6001600082815260200190815260200160002060009054906101000a900473ffffffffffffffffffffffffffffffffffffffff1673ffffffffffffffffffffffffffffffffffffffff163373ffffffffffffffffffffffffffffffffffffffff161415610a51576040517f08c379a0000000000000000000000000000000000000000000000000000000008152600401610a48906117f6565b60405180910390fd5b3373ffffffffffffffffffffffffffffffffffffffff1660008281548110610a7c57610a7b611602565b5b906000526020600020906006020160050160009054906101000a900473ffffffffffffffffffffffffffffffffffffffff1673ffffffffffffffffffffffffffffffffffffffff161415610b05576040517f08c379a0000000000000000000000000000000000000000000000000000000008152600401610afc90611862565b60405180910390fd5b3360008281548110610b1a57610b19611602565b5b906000526020600020906006020160050160006101000a81548173ffffffffffffffffffffffffffffffffffffffff021916908373ffffffffffffffffffffffffffffffffffffffff16021790555060008181548110610b7d57610b7c611602565b5b90600052602060002090600602016004016000815480929190610b9f90611882565b91905055507f64d8461ac79b309e58f892683618716b5d8ba3cd78c1e135746a22d1c6449b6d3382604051610bd5929190611715565b60405180910390a150565b60016020528060005260406000206000915054906101000a900473ffffffffffffffffffffffffffffffffffffffff1681565b60008080549050905090565b60008080549050905060006040518060c00160405280838152602001878152602001868152602001858152602001848152602001600073ffffffffffffffffffffffffffffffffffffffff168152509080600181540180825580915050600190039060005260206000209060060201600090919091909150600082015181600001556020820151816001019080519060200190610cbd929190610ddd565b506040820151816002019080519060200190610cda929190610ddd565b506060820151816003019080519060200190610cf7929190610ddd565b506080820151816004015560a08201518160050160006101000a81548173ffffffffffffffffffffffffffffffffffffffff021916908373ffffffffffffffffffffffffffffffffffffffff1602179055505050336001600083815260200190815260200160002060006101000a81548173ffffffffffffffffffffffffffffffffffffffff021916908373ffffffffffffffffffffffffffffffffffffffff1602179055507ffc514b1c371c9ea660bfe93b9d0b4574a1e7d62a4c0c37dccd582f4f332237933382604051610dce929190611715565b60405180910390a15050505050565b828054610de990611564565b90600052602060002090601f016020900481019282610e0b5760008555610e52565b82601f10610e2457805160ff1916838001178555610e52565b82800160010185558215610e52579182015b82811115610e51578251825591602001919060010190610e36565b5b509050610e5f9190610e63565b5090565b5b80821115610e7c576000816000905550600101610e64565b5090565b600081519050919050565b600082825260208201905092915050565b6000819050602082019050919050565b6000819050919050565b610ebf81610eac565b82525050565b600081519050919050565b600082825260208201905092915050565b60005b83811015610eff578082015181840152602081019050610ee4565b83811115610f0e576000848401525b50505050565b6000601f19601f8301169050919050565b6000610f3082610ec5565b610f3a8185610ed0565b9350610f4a818560208601610ee1565b610f5381610f14565b840191505092915050565b600073ffffffffffffffffffffffffffffffffffffffff82169050919050565b6000610f8982610f5e565b9050919050565b610f9981610f7e565b82525050565b600060c083016000830151610fb76000860182610eb6565b5060208301518482036020860152610fcf8282610f25565b91505060408301518482036040860152610fe98282610f25565b915050606083015184820360608601526110038282610f25565b91505060808301516110186080860182610eb6565b5060a083015161102b60a0860182610f90565b508091505092915050565b60006110428383610f9f565b905092915050565b6000602082019050919050565b600061106282610e80565b61106c8185610e8b565b93508360208202850161107e85610e9c565b8060005b858110156110ba578484038952815161109b8582611036565b94506110a68361104a565b925060208a01995050600181019050611082565b50829750879550505050505092915050565b600060208201905081810360008301526110e68184611057565b905092915050565b6000604051905090565b600080fd5b600080fd5b61110b81610eac565b811461111657600080fd5b50565b60008135905061112881611102565b92915050565b600060208284031215611144576111436110f8565b5b600061115284828501611119565b91505092915050565b600082825260208201905092915050565b600061117782610ec5565b611181818561115b565b9350611191818560208601610ee1565b61119a81610f14565b840191505092915050565b600060208201905081810360008301526111bf818461116c565b905092915050565b6111d081610f7e565b81146111db57600080fd5b50565b6000813590506111ed816111c7565b92915050565b600060208284031215611209576112086110f8565b5b6000611217848285016111de565b91505092915050565b600081519050919050565b600082825260208201905092915050565b6000819050602082019050919050565b60006112588383610eb6565b60208301905092915050565b6000602082019050919050565b600061127c82611220565b611286818561122b565b93506112918361123c565b8060005b838110156112c25781516112a9888261124c565b97506112b483611264565b925050600181019050611295565b5085935050505092915050565b600060208201905081810360008301526112e98184611271565b905092915050565b6112fa81610f7e565b82525050565b600060208201905061131560008301846112f1565b92915050565b61132481610eac565b82525050565b600060208201905061133f600083018461131b565b92915050565b600080fd5b600080fd5b7f4e487b7100000000000000000000000000000000000000000000000000000000600052604160045260246000fd5b61138782610f14565b810181811067ffffffffffffffff821117156113a6576113a561134f565b5b80604052505050565b60006113b96110ee565b90506113c5828261137e565b919050565b600067ffffffffffffffff8211156113e5576113e461134f565b5b6113ee82610f14565b9050602081019050919050565b82818337600083830152505050565b600061141d611418846113ca565b6113af565b9050828152602081018484840111156114395761143861134a565b5b6114448482856113fb565b509392505050565b600082601f83011261146157611460611345565b5b813561147184826020860161140a565b91505092915050565b60008060008060808587031215611494576114936110f8565b5b600085013567ffffffffffffffff8111156114b2576114b16110fd565b5b6114be8782880161144c565b945050602085013567ffffffffffffffff8111156114df576114de6110fd565b5b6114eb8782880161144c565b935050604085013567ffffffffffffffff81111561150c5761150b6110fd565b5b6115188782880161144c565b925050606061152987828801611119565b91505092959194509250565b7f4e487b7100000000000000000000000000000000000000000000000000000000600052602260045260246000fd5b6000600282049050600182168061157c57607f821691505b602082108114156115905761158f611535565b5b50919050565b7f496e76616c696420426f6f6b2049440000000000000000000000000000000000600082015250565b60006115cc600f8361115b565b91506115d782611596565b602082019050919050565b600060208201905081810360008301526115fb816115bf565b9050919050565b7f4e487b7100000000000000000000000000000000000000000000000000000000600052603260045260246000fd5b7f596f75206469646e277420626f72726f77207468697320626f6f6b0000000000600082015250565b6000611667601b8361115b565b915061167282611631565b602082019050919050565b600060208201905081810360008301526116968161165a565b9050919050565b7f4e487b7100000000000000000000000000000000000000000000000000000000600052601160045260246000fd5b60006116d782610eac565b91507fffffffffffffffffffffffffffffffffffffffffffffffffffffffffffffffff82141561170a5761170961169d565b5b600182019050919050565b600060408201905061172a60008301856112f1565b611737602083018461131b565b9392505050565b7f4e6f20617661696c61626c6520636f706965732e000000000000000000000000600082015250565b600061177460148361115b565b915061177f8261173e565b602082019050919050565b600060208201905081810360008301526117a381611767565b9050919050565b7f596f752063616e6e6f7420626f72726f7720796f7572206f776e20626f6f6b2e600082015250565b60006117e060208361115b565b91506117eb826117aa565b602082019050919050565b6000602082019050818103600083015261180f816117d3565b9050919050565b7f596f7520616c726561647920626f72726f776564207468697320626f6f6b2e00600082015250565b600061184c601f8361115b565b915061185782611816565b602082019050919050565b6000602082019050818103600083015261187b8161183f565b9050919050565b600061188d82610eac565b915060008214156118a1576118a061169d565b5b60018203905091905056fea2646970667358221220a28f52d3442a9b3105112ff5d7347f90f0a6119af912ff6a7296599b2995d57764736f6c63430008090033",
  "linkReferences": {},
  "deployedLinkReferences": {}
}